{
  "_format": "hh3-artifact-1",
  "contractName": "Certificate",
  "sourceName": "contracts/Certificate.sol",
  "abi": [
    {
      "inputs": [],
      "stateMutability": "nonpayable",
      "type": "constructor"
    },
    {
      "anonymous": false,
      "inputs": [
        {
          "indexed": false,
          "internalType": "string",
          "name": "certId",
          "type": "string"
        },
        {
          "indexed": false,
          "internalType": "string",
          "name": "certificateHash",
          "type": "string"
        },
        {
          "indexed": false,
          "internalType": "string",
          "name": "ipfsHash",
          "type": "string"
        },
        {
          "indexed": false,
          "internalType": "address",
          "name": "issuerWallet",
          "type": "address"
        },
        {
          "indexed": false,
          "internalType": "uint256",
          "name": "issuedTimestamp",
          "type": "uint256"
        }
      ],
      "name": "CertificateIssued",
      "type": "event"
    },
    {
      "inputs": [
        {
          "internalType": "address",
          "name": "_issuer",
          "type": "address"
        }
      ],
      "name": "addIssuer",
      "outputs": [],
      "stateMutability": "nonpayable",
      "type": "function"
    },
    {
      "inputs": [],
      "name": "admin",
      "outputs": [
        {
          "internalType": "address",
          "name": "",
          "type": "address"
        }
      ],
      "stateMutability": "view",
      "type": "function"
    },
    {
      "inputs": [
        {
          "internalType": "address",
          "name": "",
          "type": "address"
        }
      ],
      "name": "authorizedIssuers",
      "outputs": [
        {
          "internalType": "bool",
          "name": "",
          "type": "bool"
        }
      ],
      "stateMutability": "view",
      "type": "function"
    },
    {
      "inputs": [
        {
          "internalType": "string",
          "name": "certId",
          "type": "string"
        },
        {
          "internalType": "string",
          "name": "certificateHash",
          "type": "string"
        },
        {
          "internalType": "string",
          "name": "ipfsHash",
          "type": "string"
        }
      ],
      "name": "issueCertificate",
      "outputs": [],
      "stateMutability": "nonpayable",
      "type": "function"
    },
    {
      "inputs": [
        {
          "internalType": "address",
          "name": "_issuer",
          "type": "address"
        }
      ],
      "name": "removeIssuer",
      "outputs": [],
      "stateMutability": "nonpayable",
      "type": "function"
    },
    {
      "inputs": [
        {
          "internalType": "string",
          "name": "certificateHash",
          "type": "string"
        }
      ],
      "name": "verifyCertificate",
      "outputs": [
        {
          "internalType": "string",
          "name": "certId",
          "type": "string"
        },
        {
          "internalType": "string",
          "name": "ipfsHash",
          "type": "string"
        },
        {
          "internalType": "address",
          "name": "issuerWallet",
          "type": "address"
        },
        {
          "internalType": "uint256",
          "name": "issuedTimestamp",
          "type": "uint256"
        },
        {
          "internalType": "bool",
          "name": "exists",
          "type": "bool"
        }
      ],
      "stateMutability": "view",
      "type": "function"
    }
  ],
  "bytecode": "0x6080604052348015600e575f5ffd5b50335f5f6101000a81548173ffffffffffffffffffffffffffffffffffffffff021916908373ffffffffffffffffffffffffffffffffffffffff160217905550600160025f5f5f9054906101000a900473ffffffffffffffffffffffffffffffffffffffff1673ffffffffffffffffffffffffffffffffffffffff1673ffffffffffffffffffffffffffffffffffffffff1681526020019081526020015f205f6101000a81548160ff02191690831515021790555061113f806100d05f395ff3fe608060405234801561000f575f5ffd5b5060043610610060575f3560e01c806320694db01461006457806347bc7093146100805780638b23d8751461009c578063beec1caa146100d0578063f731fa0f146100ec578063f851a4401461011c575b5f5ffd5b61007e600480360381019061007991906108cb565b61013a565b005b61009a600480360381019061009591906108cb565b610220565b005b6100b660048036038101906100b19190610a32565b610305565b6040516100c7959493929190610b1a565b60405180910390f35b6100ea60048036038101906100e59190610b79565b6105c9565b005b610106600480360381019061010191906108cb565b61081f565b6040516101139190610c1d565b60405180910390f35b61012461083c565b6040516101319190610c36565b60405180910390f35b5f5f9054906101000a900473ffffffffffffffffffffffffffffffffffffffff1673ffffffffffffffffffffffffffffffffffffffff163373ffffffffffffffffffffffffffffffffffffffff16146101c8576040517f08c379a00000000000000000000000000000000000000000000000000000000081526004016101bf90610c99565b60405180910390fd5b600160025f8373ffffffffffffffffffffffffffffffffffffffff1673ffffffffffffffffffffffffffffffffffffffff1681526020019081526020015f205f6101000a81548160ff02191690831515021790555050565b5f5f9054906101000a900473ffffffffffffffffffffffffffffffffffffffff1673ffffffffffffffffffffffffffffffffffffffff163373ffffffffffffffffffffffffffffffffffffffff16146102ae576040517f08c379a00000000000000000000000000000000000000000000000000000000081526004016102a590610c99565b60405180910390fd5b5f60025f8373ffffffffffffffffffffffffffffffffffffffff1673ffffffffffffffffffffffffffffffffffffffff1681526020019081526020015f205f6101000a81548160ff02191690831515021790555050565b6060805f5f5f5f60018760405161031c9190610cf1565b90815260200160405180910390206040518060c00160405290815f8201805461034490610d34565b80601f016020809104026020016040519081016040528092919081815260200182805461037090610d34565b80156103bb5780601f10610392576101008083540402835291602001916103bb565b820191905f5260205f20905b81548152906001019060200180831161039e57829003601f168201915b505050505081526020016001820180546103d490610d34565b80601f016020809104026020016040519081016040528092919081815260200182805461040090610d34565b801561044b5780601f106104225761010080835404028352916020019161044b565b820191905f5260205f20905b81548152906001019060200180831161042e57829003601f168201915b5050505050815260200160028201805461046490610d34565b80601f016020809104026020016040519081016040528092919081815260200182805461049090610d34565b80156104db5780601f106104b2576101008083540402835291602001916104db565b820191905f5260205f20905b8154815290600101906020018083116104be57829003601f168201915b50505050508152602001600382015f9054906101000a900473ffffffffffffffffffffffffffffffffffffffff1673ffffffffffffffffffffffffffffffffffffffff1673ffffffffffffffffffffffffffffffffffffffff16815260200160048201548152602001600582015f9054906101000a900460ff16151515158152505090508060a0015161059f575f5f5f60405180602001604052805f81525092919060405180602001604052805f81525092919095509550955095509550506105c0565b805f0151816040015182606001518360800151600195509550955095509550505b91939590929450565b60025f3373ffffffffffffffffffffffffffffffffffffffff1673ffffffffffffffffffffffffffffffffffffffff1681526020019081526020015f205f9054906101000a900460ff16610652576040517f08c379a000000000000000000000000000000000000000000000000000000000815260040161064990610dae565b60405180910390fd5b6001826040516106629190610cf1565b90815260200160405180910390206005015f9054906101000a900460ff16156106c0576040517f08c379a00000000000000000000000000000000000000000000000000000000081526004016106b790610e16565b60405180910390fd5b5f6040518060c001604052808581526020018481526020018381526020013373ffffffffffffffffffffffffffffffffffffffff1681526020014281526020016001151581525090508060018460405161071a9190610cf1565b90815260200160405180910390205f820151815f01908161073b9190610fd4565b5060208201518160010190816107519190610fd4565b5060408201518160020190816107679190610fd4565b506060820151816003015f6101000a81548173ffffffffffffffffffffffffffffffffffffffff021916908373ffffffffffffffffffffffffffffffffffffffff1602179055506080820151816004015560a0820151816005015f6101000a81548160ff0219169083151502179055509050507f192735a5111e79a7ba3f6aa8a10d32ffaf5431653c4e9c4af8fa5034ca33359884848433426040516108119594939291906110a3565b60405180910390a150505050565b6002602052805f5260405f205f915054906101000a900460ff1681565b5f5f9054906101000a900473ffffffffffffffffffffffffffffffffffffffff1681565b5f604051905090565b5f5ffd5b5f5ffd5b5f73ffffffffffffffffffffffffffffffffffffffff82169050919050565b5f61089a82610871565b9050919050565b6108aa81610890565b81146108b4575f5ffd5b50565b5f813590506108c5816108a1565b92915050565b5f602082840312156108e0576108df610869565b5b5f6108ed848285016108b7565b91505092915050565b5f5ffd5b5f5ffd5b5f601f19601f8301169050919050565b7f4e487b71000000000000000000000000000000000000000000000000000000005f52604160045260245ffd5b610944826108fe565b810181811067ffffffffffffffff821117156109635761096261090e565b5b80604052505050565b5f610975610860565b9050610981828261093b565b919050565b5f67ffffffffffffffff8211156109a05761099f61090e565b5b6109a9826108fe565b9050602081019050919050565b828183375f83830152505050565b5f6109d66109d184610986565b61096c565b9050828152602081018484840111156109f2576109f16108fa565b5b6109fd8482856109b6565b509392505050565b5f82601f830112610a1957610a186108f6565b5b8135610a298482602086016109c4565b91505092915050565b5f60208284031215610a4757610a46610869565b5b5f82013567ffffffffffffffff811115610a6457610a6361086d565b5b610a7084828501610a05565b91505092915050565b5f81519050919050565b5f82825260208201905092915050565b8281835e5f83830152505050565b5f610aab82610a79565b610ab58185610a83565b9350610ac5818560208601610a93565b610ace816108fe565b840191505092915050565b610ae281610890565b82525050565b5f819050919050565b610afa81610ae8565b82525050565b5f8115159050919050565b610b1481610b00565b82525050565b5f60a0820190508181035f830152610b328188610aa1565b90508181036020830152610b468187610aa1565b9050610b556040830186610ad9565b610b626060830185610af1565b610b6f6080830184610b0b565b9695505050505050565b5f5f5f60608486031215610b9057610b8f610869565b5b5f84013567ffffffffffffffff811115610bad57610bac61086d565b5b610bb986828701610a05565b935050602084013567ffffffffffffffff811115610bda57610bd961086d565b5b610be686828701610a05565b925050604084013567ffffffffffffffff811115610c0757610c0661086d565b5b610c1386828701610a05565b9150509250925092565b5f602082019050610c305f830184610b0b565b92915050565b5f602082019050610c495f830184610ad9565b92915050565b7f4f6e6c792061646d696e000000000000000000000000000000000000000000005f82015250565b5f610c83600a83610a83565b9150610c8e82610c4f565b602082019050919050565b5f6020820190508181035f830152610cb081610c77565b9050919050565b5f81905092915050565b5f610ccb82610a79565b610cd58185610cb7565b9350610ce5818560208601610a93565b80840191505092915050565b5f610cfc8284610cc1565b915081905092915050565b7f4e487b71000000000000000000000000000000000000000000000000000000005f52602260045260245ffd5b5f6002820490506001821680610d4b57607f821691505b602082108103610d5e57610d5d610d07565b5b50919050565b7f4e6f7420617574686f72697a65640000000000000000000000000000000000005f82015250565b5f610d98600e83610a83565b9150610da382610d64565b602082019050919050565b5f6020820190508181035f830152610dc581610d8c565b9050919050565b7f416c7265616479206973737565640000000000000000000000000000000000005f82015250565b5f610e00600e83610a83565b9150610e0b82610dcc565b602082019050919050565b5f6020820190508181035f830152610e2d81610df4565b9050919050565b5f819050815f5260205f209050919050565b5f6020601f8301049050919050565b5f82821b905092915050565b5f60088302610e907fffffffffffffffffffffffffffffffffffffffffffffffffffffffffffffffff82610e55565b610e9a8683610e55565b95508019841693508086168417925050509392505050565b5f819050919050565b5f610ed5610ed0610ecb84610ae8565b610eb2565b610ae8565b9050919050565b5f819050919050565b610eee83610ebb565b610f02610efa82610edc565b848454610e61565b825550505050565b5f5f905090565b610f19610f0a565b610f24818484610ee5565b505050565b5b81811015610f4757610f3c5f82610f11565b600181019050610f2a565b5050565b601f821115610f8c57610f5d81610e34565b610f6684610e46565b81016020851015610f75578190505b610f89610f8185610e46565b830182610f29565b50505b505050565b5f82821c905092915050565b5f610fac5f1984600802610f91565b1980831691505092915050565b5f610fc48383610f9d565b9150826002028217905092915050565b610fdd82610a79565b67ffffffffffffffff811115610ff657610ff561090e565b5b6110008254610d34565b61100b828285610f4b565b5f60209050601f83116001811461103c575f841561102a578287015190505b6110348582610fb9565b86555061109b565b601f19841661104a86610e34565b5f5b828110156110715784890151825560018201915060208501945060208101905061104c565b8683101561108e578489015161108a601f891682610f9d565b8355505b6001600288020188555050505b505050505050565b5f60a0820190508181035f8301526110bb8188610aa1565b905081810360208301526110cf8187610aa1565b905081810360408301526110e38186610aa1565b90506110f26060830185610ad9565b6110ff6080830184610af1565b969550505050505056fea2646970667358221220a4df45c63fca511c268d0df0fff3f52c3ce42fad01d4db4ee27929cd3eef870b64736f6c634300081c0033",
  "linkReferences": {},
  "deployedLinkReferences": {},
  "immutableReferences": {},
  "inputSourceName": "project/contracts/Certificate.sol",
  "buildInfoId": "solc-0_8_28-3ef74896c34b453084943aa4e8dd9fd82180ab40"
}